{
  "_format": "hh-sol-artifact-1",
  "contractName": "CrowdFunding",
  "sourceName": "contracts/CrowdFunding.sol",
  "abi": [
    {
      "inputs": [
        {
          "internalType": "uint256",
          "name": "",
          "type": "uint256"
        }
      ],
      "name": "campaigns",
      "outputs": [
        {
          "internalType": "address",
          "name": "owner",
          "type": "address"
        },
        {
          "internalType": "string",
          "name": "title",
          "type": "string"
        },
        {
          "internalType": "string",
          "name": "description",
          "type": "string"
        },
        {
          "internalType": "uint256",
          "name": "target",
          "type": "uint256"
        },
        {
          "internalType": "uint256",
          "name": "deadline",
          "type": "uint256"
        },
        {
          "internalType": "uint256",
          "name": "amountCollected",
          "type": "uint256"
        }
      ],
      "stateMutability": "view",
      "type": "function"
    },
    {
      "inputs": [
        {
          "internalType": "address",
          "name": "_owner",
          "type": "address"
        },
        {
          "internalType": "string",
          "name": "_title",
          "type": "string"
        },
        {
          "internalType": "string",
          "name": "_description",
          "type": "string"
        },
        {
          "internalType": "uint256",
          "name": "_target",
          "type": "uint256"
        },
        {
          "internalType": "uint256",
          "name": "_deadline",
          "type": "uint256"
        }
      ],
      "name": "createCampaign",
      "outputs": [
        {
          "internalType": "uint256",
          "name": "",
          "type": "uint256"
        }
      ],
      "stateMutability": "nonpayable",
      "type": "function"
    },
    {
      "inputs": [
        {
          "internalType": "uint256",
          "name": "_id",
          "type": "uint256"
        }
      ],
      "name": "donateToCampaign",
      "outputs": [],
      "stateMutability": "payable",
      "type": "function"
    },
    {
      "inputs": [],
      "name": "getCamapigns",
      "outputs": [
        {
          "components": [
            {
              "internalType": "address",
              "name": "owner",
              "type": "address"
            },
            {
              "internalType": "string",
              "name": "title",
              "type": "string"
            },
            {
              "internalType": "string",
              "name": "description",
              "type": "string"
            },
            {
              "internalType": "uint256",
              "name": "target",
              "type": "uint256"
            },
            {
              "internalType": "uint256",
              "name": "deadline",
              "type": "uint256"
            },
            {
              "internalType": "uint256",
              "name": "amountCollected",
              "type": "uint256"
            },
            {
              "internalType": "address[]",
              "name": "donators",
              "type": "address[]"
            },
            {
              "internalType": "uint256[]",
              "name": "donations",
              "type": "uint256[]"
            }
          ],
          "internalType": "struct CrowdFunding.Campaign[]",
          "name": "",
          "type": "tuple[]"
        }
      ],
      "stateMutability": "view",
      "type": "function"
    },
    {
      "inputs": [
        {
          "internalType": "uint256",
          "name": "_id",
          "type": "uint256"
        }
      ],
      "name": "getDonators",
      "outputs": [
        {
          "internalType": "address[]",
          "name": "",
          "type": "address[]"
        },
        {
          "internalType": "uint256[]",
          "name": "",
          "type": "uint256[]"
        }
      ],
      "stateMutability": "view",
      "type": "function"
    },
    {
      "inputs": [],
      "name": "numberOfCampaigns",
      "outputs": [
        {
          "internalType": "uint256",
          "name": "",
          "type": "uint256"
        }
      ],
      "stateMutability": "view",
      "type": "function"
    }
  ],
  "bytecode": "0x6080604052600060015534801561001557600080fd5b5061184e806100256000396000f3fe6080604052600436106100555760003560e01c8063075843c31461005a57806307ca140d146100975780630fa91fa9146100c2578063141961bc1461010057806342a4fda8146101425780637819634b1461015e575b600080fd5b34801561006657600080fd5b50610081600480360381019061007c9190610c5d565b610189565b60405161008e9190610d1f565b60405180910390f35b3480156100a357600080fd5b506100ac61029d565b6040516100b99190610d1f565b60405180910390f35b3480156100ce57600080fd5b506100e960048036038101906100e49190610d3a565b6102a3565b6040516100f7929190610ee3565b60405180910390f35b34801561010c57600080fd5b5061012760048036038101906101229190610d3a565b6103b3565b60405161013996959493929190610fa8565b60405180910390f35b61015c60048036038101906101579190610d3a565b61051f565b005b34801561016a57600080fd5b506101736106d0565b60405161018091906112c6565b60405180910390f35b60008060008060015481526020019081526020016000209050428160040154106101e8576040517f08c379a00000000000000000000000000000000000000000000000000000000081526004016101df9061135a565b60405180910390fd5b868160000160006101000a81548173ffffffffffffffffffffffffffffffffffffffff021916908373ffffffffffffffffffffffffffffffffffffffff1602179055508581600101908161023c9190611586565b508481600201908161024e9190611586565b50838160030181905550828160040181905550600081600501819055506001600081548092919061027e90611687565b91905055506001805461029191906116cf565b91505095945050505050565b60015481565b6060806000808481526020019081526020016000206006016000808581526020019081526020016000206007018180548060200260200160405190810160405280929190818152602001828054801561035157602002820191906000526020600020905b8160009054906101000a900473ffffffffffffffffffffffffffffffffffffffff1673ffffffffffffffffffffffffffffffffffffffff1681526020019060010190808311610307575b50505050509150808054806020026020016040519081016040528092919081815260200182805480156103a357602002820191906000526020600020905b81548152602001906001019080831161038f575b5050505050905091509150915091565b60006020528060005260406000206000915090508060000160009054906101000a900473ffffffffffffffffffffffffffffffffffffffff16908060010180546103fc906113a9565b80601f0160208091040260200160405190810160405280929190818152602001828054610428906113a9565b80156104755780601f1061044a57610100808354040283529160200191610475565b820191906000526020600020905b81548152906001019060200180831161045857829003601f168201915b50505050509080600201805461048a906113a9565b80601f01602080910402602001604051908101604052809291908181526020018280546104b6906113a9565b80156105035780601f106104d857610100808354040283529160200191610503565b820191906000526020600020905b8154815290600101906020018083116104e657829003601f168201915b5050505050908060030154908060040154908060050154905086565b60003490506000806000848152602001908152602001600020905080600601339080600181540180825580915050600190039060005260206000200160009091909190916101000a81548173ffffffffffffffffffffffffffffffffffffffff021916908373ffffffffffffffffffffffffffffffffffffffff1602179055508060070182908060018154018082558091505060019003906000526020600020016000909190919091505560008160000160009054906101000a900473ffffffffffffffffffffffffffffffffffffffff1673ffffffffffffffffffffffffffffffffffffffff168360405161061490611734565b60006040518083038185875af1925050503d8060008114610651576040519150601f19603f3d011682016040523d82523d6000602084013e610656565b606091505b50509050801561068f578282600501546106709190611749565b8260050160008282546106839190611749565b925050819055506106ca565b6040517f08c379a00000000000000000000000000000000000000000000000000000000081526004016106c1906117c9565b60405180910390fd5b50505050565b6060600060015467ffffffffffffffff8111156106f0576106ef610afc565b5b60405190808252806020026020018201604052801561072957816020015b610716610a14565b81526020019060019003908161070e5790505b50905060005b600154811015610a0c576000806000838152602001908152602001600020905080604051806101000160405290816000820160009054906101000a900473ffffffffffffffffffffffffffffffffffffffff1673ffffffffffffffffffffffffffffffffffffffff1673ffffffffffffffffffffffffffffffffffffffff1681526020016001820180546107c2906113a9565b80601f01602080910402602001604051908101604052809291908181526020018280546107ee906113a9565b801561083b5780601f106108105761010080835404028352916020019161083b565b820191906000526020600020905b81548152906001019060200180831161081e57829003601f168201915b50505050508152602001600282018054610854906113a9565b80601f0160208091040260200160405190810160405280929190818152602001828054610880906113a9565b80156108cd5780601f106108a2576101008083540402835291602001916108cd565b820191906000526020600020905b8154815290600101906020018083116108b057829003601f168201915b505050505081526020016003820154815260200160048201548152602001600582015481526020016006820180548060200260200160405190810160405280929190818152602001828054801561097957602002820191906000526020600020905b8160009054906101000a900473ffffffffffffffffffffffffffffffffffffffff1673ffffffffffffffffffffffffffffffffffffffff168152602001906001019080831161092f575b50505050508152602001600782018054806020026020016040519081016040528092919081815260200182805480156109d157602002820191906000526020600020905b8154815260200190600101908083116109bd575b5050505050815250508383815181106109ed576109ec6117e9565b5b6020026020010181905250508080610a0490611687565b91505061072f565b508091505090565b604051806101000160405280600073ffffffffffffffffffffffffffffffffffffffff168152602001606081526020016060815260200160008152602001600081526020016000815260200160608152602001606081525090565b6000604051905090565b600080fd5b600080fd5b600073ffffffffffffffffffffffffffffffffffffffff82169050919050565b6000610aae82610a83565b9050919050565b610abe81610aa3565b8114610ac957600080fd5b50565b600081359050610adb81610ab5565b92915050565b600080fd5b600080fd5b6000601f19601f8301169050919050565b7f4e487b7100000000000000000000000000000000000000000000000000000000600052604160045260246000fd5b610b3482610aeb565b810181811067ffffffffffffffff82111715610b5357610b52610afc565b5b80604052505050565b6000610b66610a6f565b9050610b728282610b2b565b919050565b600067ffffffffffffffff821115610b9257610b91610afc565b5b610b9b82610aeb565b9050602081019050919050565b82818337600083830152505050565b6000610bca610bc584610b77565b610b5c565b905082815260208101848484011115610be657610be5610ae6565b5b610bf1848285610ba8565b509392505050565b600082601f830112610c0e57610c0d610ae1565b5b8135610c1e848260208601610bb7565b91505092915050565b6000819050919050565b610c3a81610c27565b8114610c4557600080fd5b50565b600081359050610c5781610c31565b92915050565b600080600080600060a08688031215610c7957610c78610a79565b5b6000610c8788828901610acc565b955050602086013567ffffffffffffffff811115610ca857610ca7610a7e565b5b610cb488828901610bf9565b945050604086013567ffffffffffffffff811115610cd557610cd4610a7e565b5b610ce188828901610bf9565b9350506060610cf288828901610c48565b9250506080610d0388828901610c48565b9150509295509295909350565b610d1981610c27565b82525050565b6000602082019050610d346000830184610d10565b92915050565b600060208284031215610d5057610d4f610a79565b5b6000610d5e84828501610c48565b91505092915050565b600081519050919050565b600082825260208201905092915050565b6000819050602082019050919050565b610d9c81610aa3565b82525050565b6000610dae8383610d93565b60208301905092915050565b6000602082019050919050565b6000610dd282610d67565b610ddc8185610d72565b9350610de783610d83565b8060005b83811015610e18578151610dff8882610da2565b9750610e0a83610dba565b925050600181019050610deb565b5085935050505092915050565b600081519050919050565b600082825260208201905092915050565b6000819050602082019050919050565b610e5a81610c27565b82525050565b6000610e6c8383610e51565b60208301905092915050565b6000602082019050919050565b6000610e9082610e25565b610e9a8185610e30565b9350610ea583610e41565b8060005b83811015610ed6578151610ebd8882610e60565b9750610ec883610e78565b925050600181019050610ea9565b5085935050505092915050565b60006040820190508181036000830152610efd8185610dc7565b90508181036020830152610f118184610e85565b90509392505050565b610f2381610aa3565b82525050565b600081519050919050565b600082825260208201905092915050565b60005b83811015610f63578082015181840152602081019050610f48565b60008484015250505050565b6000610f7a82610f29565b610f848185610f34565b9350610f94818560208601610f45565b610f9d81610aeb565b840191505092915050565b600060c082019050610fbd6000830189610f1a565b8181036020830152610fcf8188610f6f565b90508181036040830152610fe38187610f6f565b9050610ff26060830186610d10565b610fff6080830185610d10565b61100c60a0830184610d10565b979650505050505050565b600081519050919050565b600082825260208201905092915050565b6000819050602082019050919050565b600082825260208201905092915050565b600061105f82610f29565b6110698185611043565b9350611079818560208601610f45565b61108281610aeb565b840191505092915050565b600082825260208201905092915050565b60006110a982610d67565b6110b3818561108d565b93506110be83610d83565b8060005b838110156110ef5781516110d68882610da2565b97506110e183610dba565b9250506001810190506110c2565b5085935050505092915050565b600082825260208201905092915050565b600061111882610e25565b61112281856110fc565b935061112d83610e41565b8060005b8381101561115e5781516111458882610e60565b975061115083610e78565b925050600181019050611131565b5085935050505092915050565b6000610100830160008301516111846000860182610d93565b506020830151848203602086015261119c8282611054565b915050604083015184820360408601526111b68282611054565b91505060608301516111cb6060860182610e51565b5060808301516111de6080860182610e51565b5060a08301516111f160a0860182610e51565b5060c083015184820360c0860152611209828261109e565b91505060e083015184820360e0860152611223828261110d565b9150508091505092915050565b600061123c838361116b565b905092915050565b6000602082019050919050565b600061125c82611017565b6112668185611022565b93508360208202850161127885611033565b8060005b858110156112b457848403895281516112958582611230565b94506112a083611244565b925060208a0199505060018101905061127c565b50829750879550505050505092915050565b600060208201905081810360008301526112e08184611251565b905092915050565b7f54686520646561646c696e65206d75737420626520696e20746865206675747560008201527f7265000000000000000000000000000000000000000000000000000000000000602082015250565b6000611344602283610f34565b915061134f826112e8565b604082019050919050565b6000602082019050818103600083015261137381611337565b9050919050565b7f4e487b7100000000000000000000000000000000000000000000000000000000600052602260045260246000fd5b600060028204905060018216806113c157607f821691505b6020821081036113d4576113d361137a565b5b50919050565b60008190508160005260206000209050919050565b60006020601f8301049050919050565b600082821b905092915050565b60006008830261143c7fffffffffffffffffffffffffffffffffffffffffffffffffffffffffffffffff826113ff565b61144686836113ff565b95508019841693508086168417925050509392505050565b6000819050919050565b600061148361147e61147984610c27565b61145e565b610c27565b9050919050565b6000819050919050565b61149d83611468565b6114b16114a98261148a565b84845461140c565b825550505050565b600090565b6114c66114b9565b6114d1818484611494565b505050565b5b818110156114f5576114ea6000826114be565b6001810190506114d7565b5050565b601f82111561153a5761150b816113da565b611514846113ef565b81016020851015611523578190505b61153761152f856113ef565b8301826114d6565b50505b505050565b600082821c905092915050565b600061155d6000198460080261153f565b1980831691505092915050565b6000611576838361154c565b9150826002028217905092915050565b61158f82610f29565b67ffffffffffffffff8111156115a8576115a7610afc565b5b6115b282546113a9565b6115bd8282856114f9565b600060209050601f8311600181146115f057600084156115de578287015190505b6115e8858261156a565b865550611650565b601f1984166115fe866113da565b60005b8281101561162657848901518255600182019150602085019450602081019050611601565b86831015611643578489015161163f601f89168261154c565b8355505b6001600288020188555050505b505050505050565b7f4e487b7100000000000000000000000000000000000000000000000000000000600052601160045260246000fd5b600061169282610c27565b91507fffffffffffffffffffffffffffffffffffffffffffffffffffffffffffffffff82036116c4576116c3611658565b5b600182019050919050565b60006116da82610c27565b91506116e583610c27565b92508282039050818111156116fd576116fc611658565b5b92915050565b600081905092915050565b50565b600061171e600083611703565b91506117298261170e565b600082019050919050565b600061173f82611711565b9150819050919050565b600061175482610c27565b915061175f83610c27565b925082820190508082111561177757611776611658565b5b92915050565b7f4661696c656420746f2073656e64204574686572000000000000000000000000600082015250565b60006117b3601483610f34565b91506117be8261177d565b602082019050919050565b600060208201905081810360008301526117e2816117a6565b9050919050565b7f4e487b7100000000000000000000000000000000000000000000000000000000600052603260045260246000fdfea2646970667358221220f013569e8746f711918d7e3e5d513ad54a158118478f00610054209aad6be8b664736f6c63430008120033",
  "linkReferences": {},
  "deployedLinkReferences": {}
}